S00C0000554152542E73726563DC
S11300000C942A000C9434000C9434000C943400A6
S11300100C9434000C9434000C9434000C9434008C
S11300200C9434000C9434000C9434000C9434007C
S11300300C9434000C9434000C9434000C9434006C
S11300400C9434000C9434000C9434000C9434005C
S11300500C94340011241FBECFE5D8E0DEBFCDBF21
S11300600E9436000C9493000C9400001ABA60E8C5
S113007075E280E090E00E944600C0E089B3C817B2
S1130080E9F3C9B38C2F0E946D00F8CFDC01CB01DA
S1130090880F991FAA1FBB1F880F991FAA1FBB1F78
S11300A09C01AD01220F331F441F551F220F331F24
S11300B0441F551F60E072E18AE790E00E947100DE
S11300C02150310930BD29B98AB188608AB98AB111
S11300D080618AB986E880BD08955D9BFECF8CB9A6
S11300E00895A1E21A2EAA1BBB1BFD010DC0AA1F75
S11300F0BB1FEE1FFF1FA217B307E407F50720F08D
S1130100A21BB30BE40BF50B661F771F881F991F07
S11301101A9469F760957095809590959B01AC0150
S10D0120BD01CF010895F894FFCF4C
S9030000FC
