S00C0000554152542E73726563DC
S11300000C942A000C9434000C9434000C943400A6
S11300100C9434000C9434000C9434000C9434008C
S11300200C9434000C9434000C9434000C9434007C
S11300300C9434000C9434000C9434000C9434006C
S11300400C9434000C9434000C9434000C9434005C
S11300500C94340011241FBECFE5D8E0DEBFCDBF21
S11300600E9436000C94C2000C940000CF93DF93DE
S1130070CDB7DEB727970FB6F894DEBF0FBECDBF5E
S113008060E875E280E090E00E946F001ABAF12CFB
S113009001E010E089B38F15E9F3F9B2FE0131965E
S11300A040E050E0CF0139B3B801042E02C0660F1E
S11300B0771F0A94E2F7232F30E026233723042EF8
S11300C002C0359527950A94E2F7205D21934F5F8E
S11300D05F4F4830510539F70E948B00DBCF9B01FD
S11300E0AC0184E0220F331F441F551F8A95D1F7BA
S11300F060E072E18AE790E00E94A000215031099B
S113010030BD29B9539A549A86E880BD08955D9B01
S1130110FECF8CB90895CF93DF93EC0189918823A6
S113012061F00E9487002FEF80E792E02150804029
S11301309040E1F700C00000F1CFDF91CF91089526
S1130140A1E21A2EAA1BBB1BFD010DC0AA1FBB1FD7
S1130150EE1FFF1FA217B307E407F50720F0A21B49
S1130160B30BE40BF50B661F771F881F991F1A94B6
S113017069F760957095809590959B01AC01BD01E0
S10B0180CF010895F894FFCFAC
S9030000FC
